{"abi":[{"type":"constructor","inputs":[{"name":"_owner","type":"address","internalType":"address"}],"stateMutability":"nonpayable"},{"type":"receive","stateMutability":"payable"},{"type":"function","name":"approveSpokepool","inputs":[{"name":"tokens","type":"address[]","internalType":"address[]"},{"name":"amounts","type":"uint256[]","internalType":"uint256[]"}],"outputs":[],"stateMutability":"nonpayable"},{"type":"function","name":"fillBundle","inputs":[{"name":"executionDeposit","type":"tuple","internalType":"struct AcrossDeposit","components":[{"name":"inputToken","type":"address","internalType":"address"},{"name":"outputToken","type":"address","internalType":"address"},{"name":"inputAmount","type":"uint256","internalType":"uint256"},{"name":"outputAmount","type":"uint256","internalType":"uint256"},{"name":"destinationChainId","type":"uint256","internalType":"uint256"},{"name":"originChainId","type":"uint256","internalType":"uint256"},{"name":"depositId","type":"uint256","internalType":"uint256"},{"name":"quoteTimestamp","type":"uint32","internalType":"uint32"},{"name":"fillDeadline","type":"uint32","internalType":"uint32"},{"name":"exclusivityDeadline","type":"uint32","internalType":"uint32"},{"name":"depositor","type":"address","internalType":"address"},{"name":"recipient","type":"address","internalType":"address"},{"name":"exclusiveRelayer","type":"address","internalType":"address"},{"name":"message","type":"bytes","internalType":"bytes"}]},{"name":"standardDeposits","type":"tuple[]","internalType":"struct AcrossDeposit[]","components":[{"name":"inputToken","type":"address","internalType":"address"},{"name":"outputToken","type":"address","internalType":"address"},{"name":"inputAmount","type":"uint256","internalType":"uint256"},{"name":"outputAmount","type":"uint256","internalType":"uint256"},{"name":"destinationChainId","type":"uint256","internalType":"uint256"},{"name":"originChainId","type":"uint256","internalType":"uint256"},{"name":"depositId","type":"uint256","internalType":"uint256"},{"name":"quoteTimestamp","type":"uint32","internalType":"uint32"},{"name":"fillDeadline","type":"uint32","internalType":"uint32"},{"name":"exclusivityDeadline","type":"uint32","internalType":"uint32"},{"name":"depositor","type":"address","internalType":"address"},{"name":"recipient","type":"address","internalType":"address"},{"name":"exclusiveRelayer","type":"address","internalType":"address"},{"name":"message","type":"bytes","internalType":"bytes"}]},{"name":"repaymentChainId","type":"uint256","internalType":"uint256"}],"outputs":[],"stateMutability":"nonpayable"},{"type":"function","name":"multiCall","inputs":[{"name":"executions","type":"tuple[]","internalType":"struct Execution[]","components":[{"name":"to","type":"address","internalType":"address"},{"name":"value","type":"uint256","internalType":"uint256"},{"name":"data","type":"bytes","internalType":"bytes"}]}],"outputs":[],"stateMutability":"nonpayable"},{"type":"function","name":"owner","inputs":[],"outputs":[{"name":"","type":"address","internalType":"address"}],"stateMutability":"view"},{"type":"function","name":"renounceOwnership","inputs":[],"outputs":[],"stateMutability":"nonpayable"},{"type":"function","name":"setSpokepool","inputs":[{"name":"_spokepool","type":"address","internalType":"address"}],"outputs":[],"stateMutability":"nonpayable"},{"type":"function","name":"spokepool","inputs":[],"outputs":[{"name":"","type":"address","internalType":"contract ISpokePool"}],"stateMutability":"view"},{"type":"function","name":"transferOwnership","inputs":[{"name":"newOwner","type":"address","internalType":"address"}],"outputs":[],"stateMutability":"nonpayable"},{"type":"function","name":"withdrawFunds","inputs":[{"name":"recipient","type":"address","internalType":"address"},{"name":"token","type":"address","internalType":"address"},{"name":"amount","type":"uint256","internalType":"uint256"}],"outputs":[],"stateMutability":"nonpayable"},{"type":"event","name":"OwnershipTransferred","inputs":[{"name":"previousOwner","type":"address","indexed":true,"internalType":"address"},{"name":"newOwner","type":"address","indexed":true,"internalType":"address"}],"anonymous":false},{"type":"error","name":"OwnableInvalidOwner","inputs":[{"name":"owner","type":"address","internalType":"address"}]},{"type":"error","name":"OwnableUnauthorizedAccount","inputs":[{"name":"account","type":"address","internalType":"address"}]},{"type":"error","name":"SafeERC20FailedOperation","inputs":[{"name":"token","type":"address","internalType":"address"}]}],"bytecode":{"object":"0x60803460b457601f61108238819003918201601f19168301916001600160401b0383118484101760b85780849260209460405283398101031260b457516001600160a01b03908181169081900360b4578015609c575f80546001600160a01b03198116831782556040519316907f8be0079c531659141344cd1fd0a4f28419497f9722a3daafe3b4186f6b6457e09080a3610fb590816100cd8239f35b604051631e4fbdf760e01b81525f6004820152602490fd5b5f80fd5b634e487b7160e01b5f52604160045260245ffdfe6080604052600436101561001a575b3615610018575f80fd5b005b5f3560e01c80631c20fadd14610a6c578063248b17011461091d578063361992c914610730578063430a5df7146106fd578063715018a6146106815780638da5cb5b1461064f578063a9886a28146101a9578063d36e4211146101455763f2fde38b0361000e57346101415760206003193601126101415761009a610b9d565b6100a2610f58565b73ffffffffffffffffffffffffffffffffffffffff809116908115610111575f54827fffffffffffffffffffffffff00000000000000000000000000000000000000008216175f55167f8be0079c531659141344cd1fd0a4f28419497f9722a3daafe3b4186f6b6457e05f80a3005b60246040517f1e4fbdf70000000000000000000000000000000000000000000000000000000081525f6004820152fd5b5f80fd5b346101415760206003193601126101415773ffffffffffffffffffffffffffffffffffffffff610173610b9d565b61017b610f58565b167fffffffffffffffffffffffff000000000000000000000000000000000000000060015416176001555f80f35b34610141576003196060813601126101415767ffffffffffffffff8060043511610141576101c0600435600401926004353603011261014157602435908111610141576101fa903690600401610bc0565b610202610f58565b5f5b8181106103f2578360015473ffffffffffffffffffffffffffffffffffffffff166004356101440161023590610c5e565b9161024561016460043501610c5e565b9061025561018460043501610c5e565b9061025f81610c5e565b9061026e602460043501610c5e565b61027d61010460043501610df9565b9261028d61012460043501610df9565b926004356101a40161029e91610c7f565b959096604051996102ae8b610cd0565b73ffffffffffffffffffffffffffffffffffffffff168a5273ffffffffffffffffffffffffffffffffffffffff1660208a015273ffffffffffffffffffffffffffffffffffffffff16604089015273ffffffffffffffffffffffffffffffffffffffff16606088015273ffffffffffffffffffffffffffffffffffffffff1660808701526004356044013560a08701526004356064013560c087015260043560a4013560e087015260043560c4013561010087015263ffffffff80921661012087015216610140850152369061038392610e0a565b610160830152803b15610141576040517f908d1f30000000000000000000000000000000000000000000000000000000008152905f9082908183816103ce6044358960048401610e40565b03925af180156103e7576103de57005b61001890610d1a565b6040513d5f823e3d90fd5b60015473ffffffffffffffffffffffffffffffffffffffff1690610417818486610db9565b6101400161042490610c5e565b91610430828587610db9565b6101600161043d90610c5e565b92610449838688610db9565b6101800161045690610c5e565b908686610464868284610db9565b61046d90610c5e565b610478878385610db9565b60200161048490610c5e565b61048f888486610db9565b6040013561049e898587610db9565b60600135906104ae8a8688610db9565b60a00135926104be8b8789610db9565b60c00135946104ce8c888a610db9565b610100016104db90610df9565b978c6104e8818a84610db9565b610120016104f590610df9565b986104ff92610db9565b6101a0810161050d91610c7f565b99909a6040519e8f9261051f84610cd0565b73ffffffffffffffffffffffffffffffffffffffff16835273ffffffffffffffffffffffffffffffffffffffff16602083015273ffffffffffffffffffffffffffffffffffffffff16906040015273ffffffffffffffffffffffffffffffffffffffff1660608d015273ffffffffffffffffffffffffffffffffffffffff1660808c015260a08b015260c08a015260e089015261010088015263ffffffff8092166101208801521661014086015236906105d892610e0a565b610160840152803b15610141576106265f939184926040519586809481937f908d1f300000000000000000000000000000000000000000000000000000000083526044359060048401610e40565b03925af19182156103e757600192610640575b5001610204565b61064990610d1a565b85610639565b34610141575f60031936011261014157602073ffffffffffffffffffffffffffffffffffffffff5f5416604051908152f35b34610141575f60031936011261014157610699610f58565b5f73ffffffffffffffffffffffffffffffffffffffff81547fffffffffffffffffffffffff000000000000000000000000000000000000000081168355167f8be0079c531659141344cd1fd0a4f28419497f9722a3daafe3b4186f6b6457e08280a3005b34610141575f60031936011261014157602073ffffffffffffffffffffffffffffffffffffffff60015416604051908152f35b346101415760406003193601126101415767ffffffffffffffff60043581811161014157610762903690600401610bc0565b90916024359081116101415761077c903690600401610bc0565b610784610f58565b808303610873575f5b83811061079657005b73ffffffffffffffffffffffffffffffffffffffff806107bf6107ba84888a610da9565b610c5e565b1690600154166107d0838587610da9565b6040517f095ea7b300000000000000000000000000000000000000000000000000000000815273ffffffffffffffffffffffffffffffffffffffff929092166004830152356024820152906020908190839060449082905f905af180156103e757610840575b505060010161078d565b81813d831161086c575b6108548183610d2e565b81010312610141575180151503610141578580610836565b503d61084a565b60a46040517f08c379a000000000000000000000000000000000000000000000000000000000815260206004820152604760248201527f5268696e6573746f6e6552656c617965723a20617070726f766553706f6b657060448201527f6f6f6c3a20746f6b656e7320616e6420616d6f756e7473206c656e677468206d60648201527f69736d61746368000000000000000000000000000000000000000000000000006084820152fd5b34610141576020806003193601126101415760043567ffffffffffffffff81116101415761094f903690600401610bc0565b61095a929192610f58565b5f5b81811061096557005b5f806109756107ba848689610bf1565b8561098185878a610bf1565b013561099b61099186888b610bf1565b6040810190610c7f565b9190826040519384928337810185815203925af13d15610a67573d6109bf81610d6f565b906109cd6040519283610d2e565b81525f853d92013e5b156109e35760010161095c565b608483604051907f08c379a00000000000000000000000000000000000000000000000000000000082526004820152602360248201527f5268696e6573746f6e6552656c617965723a206d756c746943616c6c2066616960448201527f6c656400000000000000000000000000000000000000000000000000000000006064820152fd5b6109d6565b3461014157606060031936011261014157610a85610b9d565b6024359073ffffffffffffffffffffffffffffffffffffffff8083168093036101415760443590610ab4610f58565b8315610b7657506040517fa9059cbb00000000000000000000000000000000000000000000000000000000602080830191825273ffffffffffffffffffffffffffffffffffffffff9490941660248301526044808301939093529181525f9190610b1f606482610d2e565b519082855af1156103e7575f513d610b6d5750803b155b610b3c57005b602490604051907f5274afe70000000000000000000000000000000000000000000000000000000082526004820152fd5b60011415610b36565b5f93508392918392839283918315610b93575b1690f1156103e757005b6108fc9250610b89565b6004359073ffffffffffffffffffffffffffffffffffffffff8216820361014157565b9181601f840112156101415782359167ffffffffffffffff8311610141576020808501948460051b01011161014157565b9190811015610c315760051b810135907fffffffffffffffffffffffffffffffffffffffffffffffffffffffffffffffa181360301821215610141570190565b7f4e487b71000000000000000000000000000000000000000000000000000000005f52603260045260245ffd5b3573ffffffffffffffffffffffffffffffffffffffff811681036101415790565b9035907fffffffffffffffffffffffffffffffffffffffffffffffffffffffffffffffe181360301821215610141570180359067ffffffffffffffff82116101415760200191813603831361014157565b610180810190811067ffffffffffffffff821117610ced57604052565b7f4e487b71000000000000000000000000000000000000000000000000000000005f52604160045260245ffd5b67ffffffffffffffff8111610ced57604052565b90601f7fffffffffffffffffffffffffffffffffffffffffffffffffffffffffffffffe0910116810190811067ffffffffffffffff821117610ced57604052565b67ffffffffffffffff8111610ced57601f017fffffffffffffffffffffffffffffffffffffffffffffffffffffffffffffffe01660200190565b9190811015610c315760051b0190565b9190811015610c315760051b810135907ffffffffffffffffffffffffffffffffffffffffffffffffffffffffffffffe4181360301821215610141570190565b3563ffffffff811681036101415790565b929192610e1682610d6f565b91610e246040519384610d2e565b829481845281830111610141578281602093845f960137010152565b9291906040845273ffffffffffffffffffffffffffffffffffffffff8082511660408601526020908060208401511660608701528060408401511660808701528060608401511660a087015260808301511660c086015260a082015160e086015260c0820151610100908187015260e0830151906101209182880152830151906101409182880152830151926101609163ffffffff80951683890152810151936101809416848801520151916101a0860152815191826101c08701525f5b838110610f43575050506020907fffffffffffffffffffffffffffffffffffffffffffffffffffffffffffffffe0601f6101e0925f84828a0101520116850101930152565b8181018301518782016101e001528201610efe565b73ffffffffffffffffffffffffffffffffffffffff5f54163303610f7857565b60246040517f118cdaa7000000000000000000000000000000000000000000000000000000008152336004820152fdfea164736f6c6343000819000a","linkReferences":{}},"methodIdentifiers":{"approveSpokepool(address[],uint256[])":"361992c9","fillBundle((address,address,uint256,uint256,uint256,uint256,uint256,uint32,uint32,uint32,address,address,address,bytes),(address,address,uint256,uint256,uint256,uint256,uint256,uint32,uint32,uint32,address,address,address,bytes)[],uint256)":"a9886a28","multiCall((address,uint256,bytes)[])":"248b1701","owner()":"8da5cb5b","renounceOwnership()":"715018a6","setSpokepool(address)":"d36e4211","spokepool()":"430a5df7","transferOwnership(address)":"f2fde38b","withdrawFunds(address,address,uint256)":"1c20fadd"},"id":0}