{"abi":[{"type":"constructor","inputs":[],"stateMutability":"nonpayable"},{"type":"function","name":"fillBundle","inputs":[{"name":"executionDeposit","type":"tuple","internalType":"struct AcrossDeposit","components":[{"name":"inputToken","type":"address","internalType":"address"},{"name":"outputToken","type":"address","internalType":"address"},{"name":"inputAmount","type":"uint256","internalType":"uint256"},{"name":"outputAmount","type":"uint256","internalType":"uint256"},{"name":"destinationChainId","type":"uint256","internalType":"uint256"},{"name":"originChainId","type":"uint256","internalType":"uint256"},{"name":"depositId","type":"uint256","internalType":"uint256"},{"name":"quoteTimestamp","type":"uint32","internalType":"uint32"},{"name":"fillDeadline","type":"uint32","internalType":"uint32"},{"name":"exclusivityDeadline","type":"uint32","internalType":"uint32"},{"name":"depositor","type":"address","internalType":"address"},{"name":"recipient","type":"address","internalType":"address"},{"name":"exclusiveRelayer","type":"address","internalType":"address"},{"name":"message","type":"bytes","internalType":"bytes"}]},{"name":"standardDeposits","type":"tuple[]","internalType":"struct AcrossDeposit[]","components":[{"name":"inputToken","type":"address","internalType":"address"},{"name":"outputToken","type":"address","internalType":"address"},{"name":"inputAmount","type":"uint256","internalType":"uint256"},{"name":"outputAmount","type":"uint256","internalType":"uint256"},{"name":"destinationChainId","type":"uint256","internalType":"uint256"},{"name":"originChainId","type":"uint256","internalType":"uint256"},{"name":"depositId","type":"uint256","internalType":"uint256"},{"name":"quoteTimestamp","type":"uint32","internalType":"uint32"},{"name":"fillDeadline","type":"uint32","internalType":"uint32"},{"name":"exclusivityDeadline","type":"uint32","internalType":"uint32"},{"name":"depositor","type":"address","internalType":"address"},{"name":"recipient","type":"address","internalType":"address"},{"name":"exclusiveRelayer","type":"address","internalType":"address"},{"name":"message","type":"bytes","internalType":"bytes"}]},{"name":"repaymentChainId","type":"uint256","internalType":"uint256"}],"outputs":[],"stateMutability":"nonpayable"},{"type":"function","name":"multiCall","inputs":[{"name":"executions","type":"tuple[]","internalType":"struct Execution[]","components":[{"name":"to","type":"address","internalType":"address"},{"name":"value","type":"uint256","internalType":"uint256"},{"name":"data","type":"bytes","internalType":"bytes"}]}],"outputs":[],"stateMutability":"nonpayable"},{"type":"function","name":"owner","inputs":[],"outputs":[{"name":"","type":"address","internalType":"address"}],"stateMutability":"view"},{"type":"function","name":"renounceOwnership","inputs":[],"outputs":[],"stateMutability":"nonpayable"},{"type":"function","name":"setSpokepool","inputs":[{"name":"_spokepool","type":"address","internalType":"address"}],"outputs":[],"stateMutability":"nonpayable"},{"type":"function","name":"spokepool","inputs":[],"outputs":[{"name":"","type":"address","internalType":"contract ISpokePool"}],"stateMutability":"view"},{"type":"function","name":"transferOwnership","inputs":[{"name":"newOwner","type":"address","internalType":"address"}],"outputs":[],"stateMutability":"nonpayable"},{"type":"function","name":"withdrawFunds","inputs":[{"name":"recipient","type":"address","internalType":"address"},{"name":"token","type":"address","internalType":"address"},{"name":"amount","type":"uint256","internalType":"uint256"}],"outputs":[],"stateMutability":"nonpayable"},{"type":"event","name":"OwnershipTransferred","inputs":[{"name":"previousOwner","type":"address","indexed":true,"internalType":"address"},{"name":"newOwner","type":"address","indexed":true,"internalType":"address"}],"anonymous":false},{"type":"error","name":"OwnableInvalidOwner","inputs":[{"name":"owner","type":"address","internalType":"address"}]},{"type":"error","name":"OwnableUnauthorizedAccount","inputs":[{"name":"account","type":"address","internalType":"address"}]},{"type":"error","name":"SafeERC20FailedOperation","inputs":[{"name":"token","type":"address","internalType":"address"}]}],"bytecode":{"object":"0x6080806040523460765733156061575f8054336001600160a01b03198216811783556040519290916001600160a01b0316907f8be0079c531659141344cd1fd0a4f28419497f9722a3daafe3b4186f6b6457e09080a3610da5908161007b8239f35b631e4fbdf760e01b81525f6004820152602490fd5b5f80fdfe60806040526004361015610011575f80fd5b5f3560e01c80631c20fadd14610876578063248b170114610722578063430a5df7146106ef578063715018a6146106735780638da5cb5b14610641578063a9886a2814610199578063d36e4211146101355763f2fde38b14610071575f80fd5b346101315760206003193601126101315761008a6109ca565b610092610d48565b73ffffffffffffffffffffffffffffffffffffffff809116908115610101575f54827fffffffffffffffffffffffff00000000000000000000000000000000000000008216175f55167f8be0079c531659141344cd1fd0a4f28419497f9722a3daafe3b4186f6b6457e05f80a3005b60246040517f1e4fbdf70000000000000000000000000000000000000000000000000000000081525f6004820152fd5b5f80fd5b346101315760206003193601126101315773ffffffffffffffffffffffffffffffffffffffff6101636109ca565b61016b610d48565b167fffffffffffffffffffffffff000000000000000000000000000000000000000060015416176001555f80f35b34610131576003196060813601126101315767ffffffffffffffff8060043511610131576101c0600435600401926004353603011261013157602435908111610131576101ea9036906004016109ed565b6101f2610d48565b5f5b8181106103e4578360015473ffffffffffffffffffffffffffffffffffffffff166004356101440161022590610a8b565b9161023561016460043501610a8b565b9061024561018460043501610a8b565b9061024f81610a8b565b9061025e602460043501610a8b565b61026d61010460043501610be9565b9261027d61012460043501610be9565b926004356101a40161028e91610aac565b9590966040519961029e8b610afd565b73ffffffffffffffffffffffffffffffffffffffff168a5273ffffffffffffffffffffffffffffffffffffffff1660208a015273ffffffffffffffffffffffffffffffffffffffff16604089015273ffffffffffffffffffffffffffffffffffffffff16606088015273ffffffffffffffffffffffffffffffffffffffff1660808701526004356044013560a08701526004356064013560c087015260043560a4013560e087015260043560c4013561010087015263ffffffff80921661012087015216610140850152369061037392610bfa565b610160830152803b15610131576040517f908d1f30000000000000000000000000000000000000000000000000000000008152905f9082908183816103be6044358960048401610c30565b03925af180156103d9576103ce57005b6103d790610b1a565b005b6040513d5f823e3d90fd5b60015473ffffffffffffffffffffffffffffffffffffffff1690610409818486610ba9565b6101400161041690610a8b565b91610422828587610ba9565b6101600161042f90610a8b565b9261043b838688610ba9565b6101800161044890610a8b565b908686610456868284610ba9565b61045f90610a8b565b61046a878385610ba9565b60200161047690610a8b565b610481888486610ba9565b60400135610490898587610ba9565b60600135906104a08a8688610ba9565b60a00135926104b08b8789610ba9565b60c00135946104c08c888a610ba9565b610100016104cd90610be9565b978c6104da818a84610ba9565b610120016104e790610be9565b986104f192610ba9565b6101a081016104ff91610aac565b99909a6040519e8f9261051184610afd565b73ffffffffffffffffffffffffffffffffffffffff16835273ffffffffffffffffffffffffffffffffffffffff16602083015273ffffffffffffffffffffffffffffffffffffffff16906040015273ffffffffffffffffffffffffffffffffffffffff1660608d015273ffffffffffffffffffffffffffffffffffffffff1660808c015260a08b015260c08a015260e089015261010088015263ffffffff8092166101208801521661014086015236906105ca92610bfa565b610160840152803b15610131576106185f939184926040519586809481937f908d1f300000000000000000000000000000000000000000000000000000000083526044359060048401610c30565b03925af19182156103d957600192610632575b50016101f4565b61063b90610b1a565b8561062b565b34610131575f60031936011261013157602073ffffffffffffffffffffffffffffffffffffffff5f5416604051908152f35b34610131575f6003193601126101315761068b610d48565b5f73ffffffffffffffffffffffffffffffffffffffff81547fffffffffffffffffffffffff000000000000000000000000000000000000000081168355167f8be0079c531659141344cd1fd0a4f28419497f9722a3daafe3b4186f6b6457e08280a3005b34610131575f60031936011261013157602073ffffffffffffffffffffffffffffffffffffffff60015416604051908152f35b34610131576020806003193601126101315760043567ffffffffffffffff8111610131576107549036906004016109ed565b61075f929192610d48565b5f5b81811061076a57005b5f8061077f61077a848689610a1e565b610a8b565b8561078b85878a610a1e565b01356107a561079b86888b610a1e565b6040810190610aac565b9190826040519384928337810185815203925af13d15610871573d6107c981610b6f565b906107d76040519283610b2e565b81525f853d92013e5b156107ed57600101610761565b608483604051907f08c379a00000000000000000000000000000000000000000000000000000000082526004820152602360248201527f5268696e6573746f6e6552656c617965723a206d756c746943616c6c2066616960448201527f6c656400000000000000000000000000000000000000000000000000000000006064820152fd5b6107e0565b346101315760606003193601126101315761088f6109ca565b6024359073ffffffffffffffffffffffffffffffffffffffff90818316809303610131576044356108be610d48565b83156109a3576040519260208401927fa9059cbb000000000000000000000000000000000000000000000000000000008452166024840152604483015260448252608082019082821067ffffffffffffffff831117610976576020925f92604052519082855af1156103d9575f513d61096d5750803b155b61093c57005b602490604051907f5274afe70000000000000000000000000000000000000000000000000000000082526004820152fd5b60011415610936565b7f4e487b71000000000000000000000000000000000000000000000000000000005f52604160045260245ffd5b5f935083929083928392839183156109c0575b1690f1156103d957005b6108fc92506109b6565b6004359073ffffffffffffffffffffffffffffffffffffffff8216820361013157565b9181601f840112156101315782359167ffffffffffffffff8311610131576020808501948460051b01011161013157565b9190811015610a5e5760051b810135907fffffffffffffffffffffffffffffffffffffffffffffffffffffffffffffffa181360301821215610131570190565b7f4e487b71000000000000000000000000000000000000000000000000000000005f52603260045260245ffd5b3573ffffffffffffffffffffffffffffffffffffffff811681036101315790565b9035907fffffffffffffffffffffffffffffffffffffffffffffffffffffffffffffffe181360301821215610131570180359067ffffffffffffffff82116101315760200191813603831361013157565b610180810190811067ffffffffffffffff82111761097657604052565b67ffffffffffffffff811161097657604052565b90601f7fffffffffffffffffffffffffffffffffffffffffffffffffffffffffffffffe0910116810190811067ffffffffffffffff82111761097657604052565b67ffffffffffffffff811161097657601f017fffffffffffffffffffffffffffffffffffffffffffffffffffffffffffffffe01660200190565b9190811015610a5e5760051b810135907ffffffffffffffffffffffffffffffffffffffffffffffffffffffffffffffe4181360301821215610131570190565b3563ffffffff811681036101315790565b929192610c0682610b6f565b91610c146040519384610b2e565b829481845281830111610131578281602093845f960137010152565b9291906040845273ffffffffffffffffffffffffffffffffffffffff8082511660408601526020908060208401511660608701528060408401511660808701528060608401511660a087015260808301511660c086015260a082015160e086015260c0820151610100908187015260e0830151906101209182880152830151906101409182880152830151926101609163ffffffff80951683890152810151936101809416848801520151916101a0860152815191826101c08701525f5b838110610d33575050506020907fffffffffffffffffffffffffffffffffffffffffffffffffffffffffffffffe0601f6101e0925f84828a0101520116850101930152565b8181018301518782016101e001528201610cee565b73ffffffffffffffffffffffffffffffffffffffff5f54163303610d6857565b60246040517f118cdaa7000000000000000000000000000000000000000000000000000000008152336004820152fdfea164736f6c6343000819000a","linkReferences":{}},"methodIdentifiers":{"fillBundle((address,address,uint256,uint256,uint256,uint256,uint256,uint32,uint32,uint32,address,address,address,bytes),(address,address,uint256,uint256,uint256,uint256,uint256,uint32,uint32,uint32,address,address,address,bytes)[],uint256)":"a9886a28","multiCall((address,uint256,bytes)[])":"248b1701","owner()":"8da5cb5b","renounceOwnership()":"715018a6","setSpokepool(address)":"d36e4211","spokepool()":"430a5df7","transferOwnership(address)":"f2fde38b","withdrawFunds(address,address,uint256)":"1c20fadd"},"id":0}